:1000000080150020AD140000E93E000081140000BE
:100010008114000081140000811400000000000021
:100020000000000000000000000000007D11000042
:10003000811400000000000029110000811400005C
:100040002D1200002D1200002D1200002D120000B4
:100050002D1200002D1200002D1200002D120000A4
:100060002D1200002D1200002D1200002D12000094
:100070002D1200002D1200002D1200002D12000084
:100080002D1200002D1200002D1200002D12000074
:100090002D1200002D1200002D1200002D12000064
:1000A0002D1200002D1200002D1200002D12000054
:1000B0002D1200002D1200002D1200002D12000044
:1000C0002D1200002D1200002D1200002D12000034
:1000D0002D1200002D1200002D1200002D12000024
:1000E0002D1200002D1200002D1200002D12000014
:1000F0002D1200002D1200002D1200002D12000004
:1001000053B94AB9002908BF00281CBF4FF0FF317E
:100110004FF0FF3000F00CB8ADF1080C6DE904CEE3
:1001200000F008F8DDF804E0DDE9022304B07047D0
:10013000704700BF2DE9F04786468C460846089E6A
:10014000154674461946002B40F0C2808542B2FA2B
:1001500082F245D94AB1C2F1200300FA02FC2EFA1C
:1001600003F3954043EA0C0C94404FEA154EA8B2B5
:10017000BCFBFEF8230C0EFB18CC08FB00F943EA8D
:100180000C43994528D9EB1808F1FF3704D299455B
:1001900002D9A8F102072B44A3EB0903A4B2B3FBD5
:1001A000FEFC0EFB1C330CFB00F044EA0344A042AF
:1001B00014D92C190CF1FF3304D2A04202D9ACF1AE
:1001C00002032C44241A43EA07401EB1D440002302
:1001D00034607360BDE8F0874746DDE76346F1E7CA
:1001E00092BB431B01214FEA154EAFB2B3FBFEFC9D
:1001F000200C0EFB1C330CFB07F840EA0343984528
:1002000062D9EB180CF1FF3004D2984502D9ACF159
:1002100002002B44A3EB0803A4B2B3FBFEFC0EFBCD
:100220001C330CFB07F744EA0344A7424ED92C19B0
:100230000CF1FF3304D2A74202D9ACF102032C44E3
:10024000E41B43EA0040C0E7C2F1200320FA03F1B7
:10025000954090402EFA03F303434FEA154EAFB298
:10026000B1FBFEFC0EFB1C10190C0CFB07F841EA5D
:100270000041884504FA02F422D969180CF1FF30D4
:1002800004D2884502D9ACF102002944A1EB08014F
:100290009BB2B1FBFEFC0EFB1C110CFB07F743EA03
:1002A00001439F420ED9EB180CF1FF3104D29F425B
:1002B00002D9ACF102012B44DB1B41EA004192E779
:1002C0006046E3E76146F7E76046A3E76346B7E7C2
:1002D000834206D916B9002108467BE7C6E900E04B
:1002E000F9E7B3FA83F78FB9834201D3724508D88F
:1002F000BEEB020460EB030301209C461EB9002103
:1003000068E73846FAE7C6E9004CF8E7C7F1200C81
:10031000BB4022FA0CF41C432EFA0CF120FA0CF329
:10032000B84001434FEA14490EFA07F5B3FBF9F858
:100330001FFA84FE09FB18300B0C08FB0EFA43EA87
:1003400000439A4502FA07F240D9E31808F1FF305A
:1003500004D29A4502D9A8F102002344A3EB0A0370
:1003600089B2B3FBF9F809FB183308FB0EFE41EA2A
:1003700003418E452CD9611808F1FF3304D28E4514
:1003800002D9A8F10203214443EA0040A0FB0298ED
:10039000A1EB0E014145CE46434602D306D14D4561
:1003A00004D2B9EB020E68EB04030138002EA6D08C
:1003B000B5EB0E0261EB030101FA0CFC22FA07F324
:1003C0004CEA0303F940C6E9003198E74046C5E727
:1003D0004346D9E70149024803F02EBC004B000018
:1003E000144B0000014B1B68184700BF00000020A1
:1003F000014B1860704700BF0000002007B50B4696
:10040000002102460091034800F014F903B05DF8A2
:1004100004FB00BFE50300002DE9F047058B04460F
:100420002807904611D4022905F0070540F0CD8039
:10043000204603F018FC78B10138218B042811D82C
:10044000DFE800F0C3106D85950001290CBF45F071
:10045000100545F02005258388F31188BFF36F8FC1
:10046000BDE8F08701F0070AAA4500F0A680002742
:10047000B9463E46A368002B00F0BD8041F008015C
:10048000218388F31188BFF36F8FA168002900F0E2
:10049000BB800D68002900F0B780D1F80480334696
:1004A00052462046C047002D76D02B6829461D466F
:1004B000F0E701F007035A1F012A1BD8002221F0A0
:1004C0000701062B276889B2C4E9002209D13B46FF
:1004D00003E0628B013262831B68002BF9D141F08B
:1004E00002012183204603F0BEFB00287BD041F0AF
:1004F000200177E0042B0AD121F0070189B2218382
:10050000204603F0B0FB10B141F020012183218B84
:1005100001F0070AAA4550D00027B946AAE7236987
:1005200021F0070141F00601062DD3F80090218348
:100530002DD1B9F1000F40D041F00801218388F39B
:100540001188BFF36F8F3A492046C84729E021F050
:100550000701236941F0040189B2042DD3F8049006
:100560002183E6D000273E464FF0040A82E721F0BF
:100570000701236941F0050189B2052DD3F80890E0
:100580002183D6D000273E464FF0050A72E70027A8
:100590003E464FF0060A6DE72B4687E7B9F1000F9C
:1005A000D1D14FF02003EFF3118883F31288BFF30A
:1005B0006F8F238B23F008032383258BEA062ED528
:1005C00025F01003238305F007056669218B002EB3
:1005D000BFF66FAF00232768C4E9003321F007019D
:1005E00041F001012183218B01F0070AAA454FF058
:1005F00000097FF43FAF002F9BD041F00801218319
:1006000088F31188BFF36F8F002FC7D03D6839463C
:1006100033465246204603F052FB2F46F4E7AB0622
:100620007FF51AAF25F02003238305F00705FFE6C9
:10063000EB3C00002DE9F04F814695B08B46174604
:100640001C460025387808B9284658E37B1C252825
:10065000039306D05946C8470028C0F2508301359D
:10066000FBE1182200210EA803F06AFC7B78252B01
:100670007DD00023781C98469E469C461E46014627
:1006800010F8012B2B2A00F0A18000F29880202A7C
:1006900000F09F80232A00F09F802BB19DF840300E
:1006A00043F040038DF84030B8F1000F05D09DF8BD
:1006B000403043F020038DF84030BEF1000F05D0EC
:1006C0009DF8403043F010038DF84030BCF1000F2E
:1006D00005D09DF8403043F008038DF840302EB12E
:1006E0009DF8403043F004038DF840309DF84030D1
:1006F00003F04400442803D16FF386138DF8403093
:100700009DF840302A2A43F080038DF840307FD195
:100710009DF8412042F001024B1C8DF841201A78CF
:100720002E2A9DF841200CBF0121002161F34102D6
:100730008DF8412078D15A782A2A6ED001330022D0
:100740004FF00A0C194611F8010BA0F13006092EE2
:1007500040F295809DF840101292C1F3400040EAAB
:10076000D2700A4660F341028DF840205CE0BA1C6A
:1007700003928DF843309DF84130DA0740F12E8125
:1007800054F8048BB8F1000F07DA9DF8402042F0CE
:1007900004028DF84020C8F100085E0740F127816F
:1007A00054F804ABBAF1000F80F226819DF8413075
:1007B0006FF341038DF841304FF0FF3A1CE12D2AD1
:1007C0000DD0302A7FF469AF012358E74FF0010CB8
:1007D00055E74FF0010E52E74FF001084FE70126B1
:1007E0004DE70EFB0262303A0346184610F8016BE3
:1007F000A6F1300CBCF1090FF3D999428FD09DF8C6
:1008000040101192D20F62F341018DF8401086E73B
:100810000B4600224FF00A0EE7E79DF8412042F018
:1008200004028DF8412002331A786C2A47D02BD865
:10083000682A31D06A2A4BD04C2A51D01A4612F875
:10084000013B0392782B9DF841208DF8433000F254
:10085000BE806D2B51D8692B00F2B980572B67D819
:10086000412B03D0453B022B00F2B1809DF8423072
:10087000042262F302038DF84230012373E00CFB83
:100880000202303A0B465DE7742A25D07A2AD5D188
:100890009DF8412006210CE05A78682A9DF84120F5
:1008A00006D1012161F3C6028DF841200233C5E76C
:1008B000022161F3C6028DF841200133BEE75A7868
:1008C0006C2A9DF8412001D10421EBE70321F0E7D8
:1008D0009DF841200521ECE79DF841200721E8E73C
:1008E000BDF8402022F4F04222F0020242F480429D
:1008F00042F00202ADF84020DFE76E3BD9B201239F
:100900008B4040F282410B4237D113F0240F51D17A
:10091000D8075CD59DF84230032161F302038DF8BE
:10092000423002F07803A3F140014B424B411AE000
:10093000A3F15801C9B2012000FA01F111F4624F8C
:1009400094D140F6010631421DD111F4043F3ED04E
:100950009DF8423060F3020302F07802402A8DF8DD
:10096000423034D000239DF84020C2F340010B43B5
:1009700063F341028DF84020FDE69DF842300221EC
:1009800061F30203E8E79DF84210022002F07802CA
:1009900060F30201402A8DF8421002BF9DF840101A
:1009A00041F001018DF84010632BDBD1131E18BFFD
:1009B0000123D8E79DF84230032161F3020312F0CE
:1009C000780F8DF8423014BF01230023CBE79DF848
:1009D000403043F001038DF84030C3E79DF94020DB
:1009E000002AB4BFDDF844804FF0FF38D5E6980701
:1009F0007FF5E2AEDDF848A09DF841100023CDE977
:100A000011339DF8423003F00703012BC1F3C301FA
:100A100033D1CB1E042B04D8DFE803F02146462156
:100A20002100236801294FEAE372CDE90E321CD17F
:100A30009DF93830DA17CDE90E3204349DF8403094
:100A400013F0030650D0039B3A465946484603F03C
:100A500029FA0028C0F253810544039FF2E554F8B7
:100A6000043BDA17CDE90E32E8E70229E5D11AB2E4
:100A700043F3C033CDE90E23DFE7022B24D1CB1E95
:100A8000042B04D8DFE803F018101018180001290F
:100A900054F8043B4FF0000214D00229CDE90E3285
:100AA000CCD19BB20E93C9E7073424F00704F4E8D5
:100AB0000223CDE90E23C1E754F8043B0E93002333
:100AC0000F93BBE7DBB2CDE7042B08D1073424F04A
:100AD0000704D4E900230834CDE90E23AEE7032B45
:100AE000ACD154F8043BDDE79DF843007828B4D836
:100AF00062281CD825283FF4ADAD5828ADD10DF1A2
:100B000036030093DDE90E0108AB10AA03F084F967
:100B1000BAF1000F074680F29A80002F9DD00DF1A8
:100B20003603D81B002E00F0C1800130BEE06338D0
:100B3000152892D801A252F820F000BF110C000035
:100B4000230C00005B0A00005B0A00005B0A000047
:100B50005B0A0000230C00005B0A00005B0A000037
:100B60005B0A00005B0A0000B10C0000490C0000A9
:100B70006F0C00005B0A00005B0A0000950B000090
:100B80005B0A0000490C00005B0A00005B0A0000E1
:100B9000490C0000BAF1000F0E9F35DB5146384674
:100BA00003F0BAF907EB000A002F3FF456AF002616
:100BB0009DF8423013F01002059200F0938002304D
:100BC0005B06119A48BF129B0492104448BFC0189C
:100BD000B8F1000F40F3A0809DF84020A8EB00087A
:100BE000C2F380035007069300F19680510640F14E
:100BF00089803EB159463046C84700287FDB069BB6
:100C000001351E4630227EE0384603F07EF9C9E702
:100C10000E9B8DF82030002608AF0DF1210A01202F
:100C2000C6E719075CBFC3F300135E01DDE90E23BD
:100C300048BF2B26002BBFF662AF524263EB430343
:100C4000CDE90E232D265AE7002658E700269DF809
:100C500040200DF13603DB1B6FF386129A458DF8A9
:100C600040207FF65AAFAAEB0303119355E70E9885
:100C700090B30DF13603009310AA08AB002103F0E6
:100C8000CBF8BDF8423003F0EF0343F4F04343F0F8
:100C90001003BAF1000F0746ADF84230D6DA00284B
:100CA0003FF4DBAE0DF13603181A00269A467FE7B3
:100CB0000E9B07293FF6D1AEDFE801F00C04060CCD
:100CC00008080C0C1D70C8E61D80C6E6EA17C3E9CB
:100CD0000052C2E61D60C0E62E4F064607F1050A27
:100CE000052065E71A0748BF013069E707931046FA
:100CF00006925946C8470028DDE9062304DA15B0F4
:100D0000BDE8F08F202243461946002903F1FF3346
:100D1000ECDC45446D1A98462EB159463046C8471A
:100D20000028ECDB01359DF84230DA0601D41B07C0
:100D300005D559463020C8470028E0DB0135059B22
:100D400033B19DF843005946C8470028D7DB013529
:100D5000049E2E4405E059463020C8470028CEDBCB
:100D60000135731B002BF6DC53463A46594648467C
:100D700003F098F80028C2DB0544A844A8EB05035B
:100D8000002B7FF76AAE59462020C8470028B6DB03
:100D90000135F3E7364B000001F036BC2DE9F8438E
:100DA00005464FF02003EFF3118683F31288BFF35B
:100DB0006F8F0E4B0E4F1C68DFF838804FF00C0918
:100DC0002CB986F31188BFF36F8FBDE8F883D4E99F
:100DD0000123002D18BF13462BB198F8142009FBEE
:100DE00002F2B85C98472468EAE700BF10020020CE
:100DF000040200206403002070B5194B1C7DBFF372
:100E00005B8F04F01F0301229A40164B610903EB2C
:100E10008103D04353E8001F01EA000543E8005670
:100E2000002EF7D1BFF35B8F0A4213D00E4B0F4D4C
:100E30008BB10C236343EA18E85C517803F098F80F
:100E40000020FFF7ABFF0C235C432A1900232B5132
:100E5000C2E9013370BD83F31188BFF36F8FEFE7F1
:100E60006403002018020020713F000004020020EB
:100E70002DE9F041354B07461D7D4FF02003EFF380
:100E8000118883F31288BFF36F8F0C24304B314EDF
:100E90006C431A19195D00294CD007CA06EB040CE3
:100EA0008CE8070000221A5588F31188BFF36F8F72
:100EB0000C236B43F218F05C002839D07B1C10D057
:100EC000D2F808C0244C254A4FF400400021ECFB26
:100ED000004100232046FFF713F90121381A03F0DF
:100EE000E4FB02F009FC0120FFF758FFBFF35B8F22
:100EF0001B4B6A0903EB820305F01F0101228A40A4
:100F000053E8000F104343E800010029F8D1BFF374
:100F10005B8F144B3BB10C2303FB05F03318305CA3
:100F2000597803F019F8FFF767FF02F0F9FB012089
:100F3000BDE8F0810146284600F016F80028B3D03D
:100F400007C8344484E80700AEE700BF640300200C
:100F5000F8010020040200203F420F0040420F0031
:100F600018020020593F00002DE9F04F85B00E46D1
:100F700003A900F043F81E4B039DD3F800A0DFF84F
:100F80007480431E1BB203EB4303044605EB830549
:100F90004FF400474FF0000B24B9A146484605B076
:100FA000BDE8F08F6868144AC4465946E0FB07C1A3
:100FB00000236046FFF7A4F80190A8680E4AC446D3
:100FC0005946E0FB07C100236046FFF799F8BAF1E4
:100FD000FF3FA94601D0824505D9731CDED0019B95
:100FE0001844B042DAD9013CA4B20C3DD4E700BFAA
:100FF000040000203F420F0040420F0008B9024B9E
:101000000B600020704700BFC84900000149102252
:101010000A60704710ED00E072B6404080F311881E
:10102000BFF36F8FBFF34F8F30BF62B6BFF36F8FC9
:10103000704700BF72B6494081F31188BFF34F8FEC
:1010400020BF80F3118862B6704700BF40B200280D
:1010500007DB044A4109012300F01F00834042F8E6
:101060002130704700E100E0054B420900F01F000D
:1010700053F82220012303FA00F01040704700BF0C
:1010800000E100E040B20028A8BF00F1604001F19B
:101090000101B8BF064B4FEA4111ACBF00F56140FA
:1010A00000F00F00C9B2B4BF195480F800137047A4
:1010B00014ED00E030BFFFF7FDBF00BF0B4A08B5DD
:1010C0000B4B22F07F029A60BFF34F8FBFF36F8FFD
:1010D000D3F8882022F47002C3F8882001F0A4FF1E
:1010E00002F048FC00F0D6F901F0E2FF0000000039
:1010F00000ED00E0094A0A499368096899670949BF
:1011000058674B6843F080534B60002383F311888A
:10111000BFF36F8F9368986F704700BF6403002020
:10112000E44A000000ED00E012498A684FF0300008
:101130001044EFF3098C80E8F01F202080F3128820
:10114000BFF36F8F0C4F4FF00066CA698A603E6034
:10115000506F0023536780F3118804B5104600F0E8
:1011600035FABDE8044002F1300090E8F01F8CF33E
:10117000098870476403002004ED00E01EF0040FAE
:101180000CBFEFF30880EFF30980816911F8021CAE
:101190000229FFD001B502F09FFE01BD42F8203CBC
:1011A000009B42F81C3C0A49019B42F8183C029BF8
:1011B00042F8143C21F001014FF0807342F8043CE6
:1011C00042F8081C0023203A02654367704700BFBD
:1011D000533C0000094A0346906870B113F1160FA2
:1011E000406E05D0A0F140029A4205D8834203D256
:1011F000814228BF00207047002070476403002010
:1012000008B5094B98600D46144600F0DFF92046FA
:1012100085F30988002163B681F31188BFF36F8FCE
:101220000022002302F015FD6403002001B572B610
:101230000B4A906900281EBF0021916103F06AF9F2
:1012400062B6EFF30580A0F110004FEAC000054937
:10125000014409C99847BDE8014003490847000017
:1012600064030020BC4700006D120000044B996825
:10127000D869884203D003494FF080520A60704712
:101280006403002004ED00E070B51D4B15469A6A1A
:101290009A6A9A6A9207064622D5586B9A6A140689
:1012A0001ED519B19A6A22F080029A629A6A9A6AE5
:1012B0009A6A134C12F0100F15D19B6A990712D439
:1012C0000020A36A0E4A9B0642BF636A23F40053C0
:1012D0006362936A43F0FF03936200232B7070BD37
:1012E0006FF01500E2E763681A05E9D53146FFF7AC
:1012F00071FF0028E4D080F309880220E1E700BFF5
:1013000000ED00E00D4B9A6A9A6A9A6A920508D538
:101310009A6B9A6A120404D518B19A6A22F40042B0
:101320009A629A6A9A6AD205044A58BF9B6A936A7B
:10133000002043F47F4393620870704700ED00E0A3
:1013400070B54A4B5B688AB00546C3F308030026B4
:1013500086F31188BFF36F8F02F07F40B0F17F4FAB
:1013600011D102F00C0008280DD010074CBF0D461B
:1013700001260022033B8DF80720032B4DD8DFE820
:1013800003F00465696D3546F3E7384BDA6A910777
:1013900043D4DA6A002A40DBDA6A52003DD55A6942
:1013A000A96942F480725A61BFF34F8FBFF36F8F08
:1013B0005A6931F8021C22F480725A61BFF34F8FD0
:1013C000BFF36F8F4DF60272914209D09A6AD2B282
:1013D00042B10DF1070201212846FFF755FF0AE04F
:1013E0002C681BE09A6A12F47F4F06D00DF10701BA
:1013F0000120FFF787FF044610E09A6AB2F5803FAC
:101400000BD39A6A9A6A9A6A9A6A9A6A9A6A9A6AE2
:101410006FEA02426FEA12429A6200249DF8073096
:1014200093B92022294602A802F07FFD099BBEB194
:10143000C3F3080222B96FEA53236FEA43230993E7
:1014400002A9204602F046FD0AB070BD0DF1070268
:101450000021C1E70DF107010020CAE7034BD0E7E7
:1014600023F4FF7323F00103E9E700BF00ED00E080
:10147000024A536943F010035361704700ED00E0E6
:10148000EFF30880EFF3098101B57246FFF758FFCB
:1014900001BD00BF044800232021C2180133302BB6
:1014A00082F80013F9D1704700E100E0002080F3DA
:1014B0001488BFF36F8FFFF76FFC00200D490860A1
:1014C000BFF34F8F0C4880F3088800F02BF82020E2
:1014D00080F3118809484FF40461401880F30988AB
:1014E000EFF314800221084380F31488BFF36F8F59
:1014F000FFF7E4FD94ED00E080150020C007002018
:101500000749D1F890200023C2F3072218469342DE
:1015100000DB7047C1F89830C1F8A0000133F6E74E
:1015200000ED00E008B572B6002383F31388FFF7DF
:10153000E7FF144B4FF0FF32C3F88020C3F884203C
:10154000C3F88820C3F88C20C3F89020C3F89420F7
:10155000C3F89820C3F89C20C3F88021C3F88421E5
:10156000C3F88821C3F88C21C3F89021C3F89421D3
:10157000C3F89821C3F89C2162B6BFF34F8FBFF325
:101580006F8F08BD00E100E0084B9B6883420BD1E0
:10159000EFF3058343B1064B5A6842F080525A601C
:1015A0005A6A22F400425A6202F084B964030020AD
:1015B00000ED00E0024B034A0348012100F070B83F
:1015C0000000022000000020C8490000426E054BC8
:1015D000403A1A60044A4021C3E901121846012129
:1015E00000F068B81C02002000000B15F0B5204E7A
:1015F00000258D4239DA446874B353B104F1FF3CDD
:1016000014EA0C0F2FD11F2C2DD907681CEA070FE5
:1016100029D1202C0768D0F808C05FFA82FE1ED9B5
:10162000B4F1004F1DD8013CB4FA84F4C4F11F0496
:101630006400BEF1070F4CEA040C14D827F01F0415
:10164000144344F01004C6F89820C6F89C404CF0AF
:101650000104C6F8A040013201350C30C9E7082466
:10166000E7E73E24E5E76FF015021046F0BD00BF46
:1016700000ED00E0044B0522C3F89420BFF34F8F28
:10168000BFF36F8F704700BF00ED00E0BFF35F8FC7
:10169000024B0022C3F89420704700BF00ED00E029
:1016A00010B5034C01232278FFF7A0FF207010BD76
:1016B0009C03002008B5094A00231278FFF796FF23
:1016C00010F1160F02D0064A072800DD08BDC2F847
:1016D0009800C2F8A0300130F6E700BF9C0300205C
:1016E00000ED00E014490868082810B521D8FFF77C
:1016F000CDFF124C49680022904201F10C0105D146
:101700000F4B1870FFF7B6FF002010BDC4F89820EB
:1017100051F80C3C23F01F03134343F01003C4F8AB
:101720009C3051F8043C43F00103C4F8A03001326E
:10173000E2E74FF0FF30E8E7D449000000ED00E0B9
:101740009C030020014B1860704700BF0800002078
:101750004FF02003EFF3118283F31288BFF36F8FF2
:1017600006490123C1F840354FF08041C1F8783572
:1017700082F31188BFF36F8F0020704700E00140B3
:101780004FF08043C0B2C3F81C05BFF34F8F05492B
:10179000054BCA6802F4E0621343CB60BFF34F8F7E
:1017A00000BFFDE700ED00E00400FA0520B1034BA7
:1017B000800143F001031847704700BFC049000093
:1017C000084B70B5C31A0D4607499B100446594390
:1017D0000648402202F0EEFB2B4601462046BDE8BB
:1017E000704018473C020020B76DDBB6444700004C
:1017F00073B50C4C0C4A4023041B00930D460B465A
:101800000A49A41061430646094802F000FC011E83
:1018100005DA30462B4602B0BDE87040184702B0EA
:1018200070BD00BF3C0200207B400000B76DDBB6FE
:1018300044470000002270B5012104461046FFF71E
:1018400021FC0F4800F0CEFF0E4B984215D102F05C
:1018500086FD26690C49304602F055FA00280BDB5C
:10186000012535642469084904F11C0002F04BFA93
:10187000002801DBE564002070BD6FF00400FBE789
:10188000C11800000000AD0BF449000070B501461E
:101890000C2309484B43C418D4E90E5600224033A8
:1018A000A263184402F073FB2DB132462B46034865
:1018B000BDE87040184770BD3C020020444700005E
:1018C00010B1012804D07047034B1B6C5B0701D19A
:1018D000FFF7DCBF704700BF3C02002008B54FF0A7
:1018E0002003EFF3118183F31288BFF36F8F124A45
:1018F000136843F002001060DA0708D481F31188FE
:10190000BFF36F8F0120BDE8084002F035BD4FF0F6
:101910008043D3F80C24D3F80C34D307EED5074812
:1019200002F035FB81F31188BFF36F8F0020BDE813
:101930000840FFF7ABBF00BF8C0200207C020020F4
:101940001FB500220123CDE90223094ACDF800D0BA
:101950006B46CDF804D002F089FB002805DB4FF47C
:1019600080420023684601F0DBFC05B05DF804FB13
:101970009940000010B54FF02003EFF3118483F37A
:101980001288BFF36F8F074A136823F00201DB0749
:10199000116002D4012002F02BFD84F31188BFF303
:1019A0006F8F10BD8C0200202DE9F0413849BFF344
:1019B0005B8F0746012251E8003F41E800200028E4
:1019C000F9D1BFF35B8F33B9324933484B60CB60F9
:1019D0008A6002F0ABF97B1E012B2BD8012F07D1B7
:1019E0004FF08043D3F81C3403F00303012B21D0C4
:1019F00002F08AFD0546F8B9284B1B78E3B14FF099
:101A000080430222C3F808230646DFF894804FF093
:101A10008044D4F81834D4F81824D20316D503F02F
:101A20000303012B01D0012F10D15DB386F3118880
:101A3000BFF36F8FBDE8F0814FF02003EFF3118605
:101A400083F31288BFF36F8F0125DEE7ADB1304617
:101A5000FFF7F0FAD4F81835002BDAD1D4F80421C6
:101A6000002AD6D0C4F80431D4F804310123C4F8D4
:101A70001835C8F88031A360CBE70021212001F0A0
:101A8000F9FEE7E74FF080430222C3F80423D1E7D1
:101A9000380200202802002058020020B107002050
:101AA00000E100E008B5074802F004FD38B106483F
:101AB000FFF748FE0448FEF79BFC002008BD6FF0CE
:101AC0001200FBE7A4470000CD1A00000A2838B531
:101AD000074D044604D1AB680D215B682846984742
:101AE000AB6803485B68E1B29847204638BD00BF49
:101AF000A447000030B54068057B01F01F04B2F533
:101B0000001F85B044EA451405D1204601F0EAF8EB
:101B1000002005B030BD0025B2F5800FCDE902559B
:101B200014D1B3F1007F0CBF042305238DF80830D6
:101B30000023194602AA204600F012FF1F4B9842CC
:101B400039D10121204601F085F8E1E7B3F1C06FFA
:101B500026D0B3F1007F14BF012302238DF8083093
:101B60008368CB40D907E3D4B2F1A07FE0D162090A
:101B7000012A04F01F03124A03F5E07318BF4FF067
:101B8000A04252F82330DB07D2D40DF107052946D5
:101B9000204601F00BF80B4B984203D00395C7E7A2
:101BA0000323DBE7284601F04FF8044B9842F5D0B9
:101BB0006FF00B00ADE76FF01500AAE70000AD0B6A
:101BC000000300500400AD0B10B501F02DF80446E1
:101BD00068B901F001F8084B98420AD1074821463C
:101BE00000F0DEFF224605210620FFF74BFA002019
:101BF00010BD6FF00400FBE70000AD0B011C0000FE
:101C0000420970B5034602D0012A17D070BD0D4EAF
:101C1000326951680029F9D003F01F0301250C68CF
:101C20009D400029F2D08A682A4002D04B68304695
:101C300098472CB1236821461C46F2E7024EE7E79D
:101C40002346F8E7744700005C4700002DE9FF4198
:101C500047683B7B01F01F0545EA43150E462846C1
:101C60000DF10301144600F0A1FF14F4403F80463B
:101C70000BD1284601F05EF83D4B984503D19DF805
:101C8000030000F0DBFF00200CE00023194602AA4D
:101C90002846CDE9023300F063FE354B984204D06C
:101CA0006FF0150004B0BDE8F081804503D19DF8C8
:101CB000030000F0C3FFA3034BD540F206332340DB
:101CC000B3F5837F19D00CD8062B17D004D8ABB14D
:101CD000022BE5D1042311E0B3F5807FE0D101238D
:101CE0000CE040F20222934227D0B3F5407F26D089
:101CF000B3F5007FD4D1022300E007238DF8043030
:101D000084F48033C3F30043E0068DF8053054BFFC
:101D1000C4F34013032321038DF8063011D57A68EC
:101D20000123B340C2F80835002201A9284600F07B
:101D3000C5FE0F4B9842A6D0B2E70523DEE703238A
:101D4000DCE7620341BF01237A68B340C2F80C3577
:101D5000EAE7E3064FF0000354BFC4F34014032442
:101D60001A4601A928468DF8044000F0F9FDE0E785
:101D70000000AD0BF0B54B79012B29D0032B24D1FA
:101D800010278B79032B20D1CE790EB1012E1CD1D7
:101D90000A79012A1ED0022A20D0B2B914460B6853
:101DA0004568B3F5164FD5F800C06ED033D8B3F5FB
:101DB000165F6DD01CD8B3F5966F6BD010D8B3F505
:101DC000967F6AD0B3F5167F6AD06FF085005BE02E
:101DD0000027D6E74FF480740E22E0E70024FBE7EB
:101DE000B3F5166F5FD0B3F5965FEED1384B3CE09C
:101DF000B3F5E14F5AD007D8B3F5615F58D0B3F5CA
:101E0000964FE2D1334B30E047F61225AB42DCD19E
:101E10004FF4000329E0B3F5613F4BD013D8B3F57D
:101E2000963F4AD009D84DF6C025AB4247D0B3F50E
:101E3000614FCAD14FF46B0317E0B3F5E13FC4D152
:101E40004FF0EB7311E0B3F5612F3BD008D8224D72
:101E5000AB423AD0B3F5E12FB7D14FF0E86304E0DD
:101E60001E4DAB42B1D14FF080530569CCF82435FB
:101E700043683A431B6834432243C3F86C2503C9C3
:101E80002B1D83E803000020F0BD4FF41D03ECE799
:101E9000134BEAE74FF49E23E7E74FF4A033E4E760
:101EA0004FF41C33E1E74FF41D23DEE70D4BDCE775
:101EB0000D4BDAE74FF06C73D7E70C4BD5E74FF4D7
:101EC0006503D2E74FF07063CFE74FF08063CCE754
:101ED00000B0130000A04E0090D0030040420F005D
:101EE0000050270000C0750000F03A0000903A0151
:101EF0002DE9F743476806693C680021C4F80015DE
:101F00003060D7F80C90804601AA484602F0B3F939
:101F1000051E54DB019BD9F800201979186800F0E0
:101F2000CBFA051E4BDB311D4046FFF723FF05466C
:101F3000002844D17B6899071AD506F1180000F0F3
:101F4000FBFF224B98423ED1337EDB0003F18043FE
:101F500003F5F83304F10C0204F59071C3F8101581
:101F6000C3F81425327E01239340194AC2F8043580
:101F70000823C4F800353B7A53B9C4F81031D4F8BB
:101F800010317369C4F834350123C4F8383523603F
:101F90007B689A075CBF4FF48073C4F804337B6896
:101FA000DB0644BF4FF48003C4F804333369C4F83C
:101FB00044350023C4F848350123A360E360284674
:101FC00003B0BDE8F0836FF00405F8E70000AD0B47
:101FD00000F00140F8B5044607690D4602F094FA96
:101FE000B0B92E4B1B789BB16426606802F0CFF825
:101FF00000BB012002F057F9013EF6D1002121205B
:1020000001F038FCF0E786F31188BFF36F8FF5E736
:102010004FF02003EFF3118683F31288BFF36F8F25
:102020006068314602F0B3F890B986F31188BFF3C7
:102030006F8FEDE74FF02003EFF3118683F31288E3
:10204000BFF36F8F6068314602F0A1F80028DAD044
:102050003B691D70626838691368C3F84405012044
:10206000C3F848050020C3F82001D3F82051C3F875
:1020700058015268D3F85801D20608D56268126830
:102080000820C2F800054FF48002C3F8042301229F
:102090009A6081F31188BFF36F8FF8BDB1070020FC
:1020A00070B5012383400E4ABFF35B8FDC4352E8D7
:1020B000001F01EA040542E80056002EF7D1BFF3E5
:1020C0005B8F4FF4803282400648C0F80823BFF38C
:1020D0005F8FBFF36F8F0B4214BF0120002070BDD4
:1020E000AC0200200010014070B40E49D1E9003468
:1020F000D01AC31844F1000422F07F46C1E900342D
:10210000A6F50013B3F5400F09D2074B1B681A0A56
:102110001B069C19054B42F10005C3E9004570BC44
:1021200001F00EBDE0000020B0020020E800002019
:1021300011B3BFF35B8F0123104A834052E800CFF5
:102140004CEA030C42E800C10029F7D1BFF35B8FD2
:102150000B4A4FF480338340C2F80433094BBFF37A
:102160005B8F1B68BFF35B8FC340DB0742BF064B2F
:102170004FF40032C3F80021704700BFAC020020CA
:1021800000100140A802002000E100E00D4B18689B
:10219000010A0006BFF35F8F0B4BD3F80435181804
:1021A00041F10001B3F5801F0AD2084BD3E90023A7
:1021B000904271EB030303D210F1807041F10001F2
:1021C000704700BFB002002000100140E80000206E
:1021D0002DE9F74F16461F460446FFF761FF0090B2
:1021E000FFF7D4FFB04271EB070351D23A4B301ADC
:1021F00067EB0101984271F100016AD2374B03EBA2
:102200000413D3E902239F4208BF96424ED03449BB
:102210004FF4803904F1500509FA04F9AD00C1F812
:1022200048932046ADB202F01AF826F07F4B05F134
:10223000804504F5A8732B4A019305F58835DC46E3
:102240004FF0030A019B2CF07F4041F82300C1F8B6
:102250004493D1F804856FF00200A0EB08006044BD
:1022600020F07F40904221D9286860B1D1F80485E0
:10227000A8EB0B0020F07F40B0F5000F16D92046E8
:1022800001F0EDFF174A0AEB080C0AF1010AD9E741
:102290000123154ABFF35B8FA34052E8000F184398
:1022A00042E800010029F8D1BFF35B8F0B490C987D
:1022B000230101EB0412C2E90267C8500D9B536071
:1022C000002520460099FFF733FF284603B0BDE8FC
:1022D000F08F6FF01505F4E701008000D0000020BA
:1022E00000100140FDFF7F00A802002073B5194BCC
:1022F000194D00244FF0FF304FF0FF31C5F808456D
:10230000C3E902014FF48033C5F80433134B0226AE
:102310004FF400320121C5F804631120C3F8802175
:102320002246FEF7AFFE1120FEF790FE0C4A012375
:10233000AB602B6013600B4B0B4A0093019400239E
:102340002046FFF745FF3046FFF72EFB204602B040
:1023500070BD00BFD00000200010014000E100E08F
:10236000AC020020E9200000FFFF7F002DE9F743C9
:102370002F4CD4F8043399070BD5D4F8043143B16A
:102380002C4A0023C4F80431D4F804311368013313
:102390001360D4F80433DA032AD5BFF35B8F264BDE
:1023A00053E8002F22F0010143E800100028F7D184
:1023B000BFF35B8FD30702D4D4F84031C3B10025FB
:1023C000C4F84051D4F84031FFF7E0FE4FF020034D
:1023D000EFF3118283F31288BFF36F8F174BD3E9AA
:1023E0000267B042B94106D282F31188BFF36F8F02
:1023F00003B0BDE8F0834FF0FF384FF0FF39C3E979
:102400000289D3E900101D604FF48033C4F84833CB
:10241000C4F84051D4F8403182F31188BFF36F8F74
:102420000029E5D0009032463B4628468847DFE742
:1024300000100140B0020020A8020020D0000020BF
:10244000431C13B522D0012822DD124A124B9042C0
:10245000D4BF04461C46FFF799FE104B0E49D3E942
:102460000023801AB0F5000F28BF002404448C42DA
:1024700028BF0C46A2180A4900914FF000000190B5
:1024800043F10003FFF7A4FE02B010BD024CE2E7E7
:102490000124E0E7FEFF7F00FFFF7F00E000002057
:1024A000E920000008B5FFF771FE024B1B68C01A57
:1024B00008BD00BFE00000202DE9F0414D4E00EBCB
:1024C00081010127814202D10020BDE8F081056829
:1024D00005F07F03C5F343247F2B4FEA154508BF62
:1024E0004FF0FF33192D00F28180DFE805F00D1F5A
:1024F00024272A3E277F7F7F7F426B7F7F7F7F7FDE
:102500007F7F7F7F6E76797CC2F80C354FEA531C53
:10251000BCF1010F03F01F0514BF4FF0A04CB446EF
:1025200007FA05F5CCF80855012502E0C2F8143584
:102530000025AE4624E0C2F80835E7E7C2F81035BA
:10254000F6E7C2F8083500254FEA531EBEF1010F29
:1025500014BF4FF0A04EB64603F01F0C07FA0CFC58
:10256000CEF80CC54FF0010E0AE0C2F80C3501257B
:10257000EAE7C2F80835002CDAD10025AE46062479
:1025800050F804CB0CF40058B8F1000F4FEA0424C3
:10259000CCF3C11803F01F0C4FEA53131CBF0125E5
:1025A0004FF0000E44EA8804012B0CBF33464FF075
:1025B000A04344EA0E040CF5E07C44EA450443F8E9
:1025C0002C407FE7C2F80C35D5E7C2F860350568C6
:1025D000C5F38035002DCAD098E7C2F86435F6E718
:1025E000C2F86835F3E7C2F86C35F0E76FF08500A4
:1025F0006BE700BF00030050024AD2F80034002B02
:10260000FBD0704700E0014010B54FF08053D3F885
:1026100030210D2A55D14FF080410022C1F80C2104
:10262000C1F81021C1F83825484AD3F80404C2F88B
:102630002005D3F80804C2F82405D3F80C04C2F826
:102640002805D3F81004C2F82C05D3F81404C2F8F6
:102650003005D3F81804C2F83405D3F81C04C2F8C6
:102660004005D3F82004C2F84405D3F82404C2F886
:102670004805D3F82804C2F84C05D3F82C04C2F856
:102680005005D3F83004C2F85405D3F83404C2F826
:102690006005D3F83804C2F86405D3F83C04C2F8E6
:1026A0006805D3F84004C2F86C05D3F84434C2F886
:1026B0007035D1F80034DB0709D56FF00103C1F89C
:1026C00000344FF08053D3F830310D2B0CD14FF044
:1026D0008053D3F834313BB14FF01023D3F80822A4
:1026E0004FF08043C3F858254FF01023D3F8002251
:1026F000002A03DBD3F80432002B22DA1449012329
:102700004FF01020C1F804351224FFF775FFC0F810
:102710000042FFF771FFC0F80442FFF76DFF00238E
:10272000C1F80435FFF768FFBFF34F8F09490A4B23
:10273000CA6802F4E0621343CB60BFF34F8F00BF5F
:10274000FDE7064B064A1A6010BD00BF00C00040FE
:1027500000E0014000ED00E00400FA054400002024
:102760000090D00370B501250268BFF35B8FB2FA09
:1027700082F3C3F11F03DBB205FA03F422EA040477
:1027800050E8006F964204D140E8004CBCF1000FC5
:10279000F6D1BFF35B8FE7D101480B7070BD00BF6E
:1027A0000000AD0B10B50368CB40DB0714D4012348
:1027B0008B400268BFF35B8F43EA020150E8004F91
:1027C000944204D140E8001CBCF1000FF6D1BFF3E5
:1027D0005B8FEED1014810BD0148FCE70000AD0B56
:1027E0000400AD0B044B1A7922B9012218601A714A
:1027F0000248704702487047B40200200000AD0B49
:102800000C00AD0B10B54FF08043D3F8002152B14E
:102810000020C3F80001D3F800210122C3F80823E7
:10282000104B1B6898474FF08043D3F8042172B1D6
:102830000022C3F80421D3F80421D3F81824D3F8D4
:102840001814920704D10122C3F818259A6010BD0C
:102850000222C3F80823034BBDE810401B68012087
:10286000184700BFB4020020036803F01F025B0991
:10287000012B0260024818BF4FF0A040704700BF14
:1028800000030050034B083033F81000C0F3401031
:10289000704700BF4800002070B500F108030C4CE1
:1028A00034F81330DA0505460E4607D5C3F3432343
:1028B00004EBC30254F8333052689847A3682BB135
:1028C000E26831462846BDE87040184770BD00BF39
:1028D0004800002010B4124A083032F81030D905F0
:1028E0001BD5C3F3432123F4F85322F8103002F12F
:1028F0000E04002034F8023F13F4807F03D0C3F3AA
:102900004323994209D001302A28F3D1002342F809
:102910003130044810BCFFF745BF10BC704700BF02
:1029200048000020B000002038B50246FFF7AAFF9B
:10293000094C02F1080540B134F8153007495B0B2A
:1029400003F5A273002041F823001046FFF7C2FFF1
:10295000002324F8153038BD4800002000600040F6
:102960002DE9FF41044616461D4601B34E4F00F1C6
:10297000080837F818309B0702D5FFF783FF10BB14
:102980000023CDE900338DF80E308DF80F300DF1B6
:102990000F020B4620460DF10E0101F02BFD37F81A
:1029A000183023F0020343F0010327F8183046B330
:1029B0003D4B96F800C0726804F1080733F8171011
:1029C000880702D5AAB139481DE021F02001C904C9
:1029D000C90C23F8171062B1BCF1030FF3D8726869
:1029E0001678BCF1000F11D1314A06F5A27642F8F3
:1029F00026C033F8172022F01C0242EA8C0223F88A
:102A0000172045BB2B4804B0BDE8F081B20002F1AD
:102A1000804202F5C04241EA4631D2F8100520F06A
:102A20000300C2F81005D2F8100520F44F3020F44E
:102A30004070C2F810052002D2F810E500F47C5076
:102A400040EA0C4040EA0E0041F0200123F8171044
:102A5000C2F81005CDE7D5E900672046FFF73AFF39
:102A6000002ECFD0104DD5E90023964201D19F42D0
:102A700018D011480DF10F01FFF774FE0D4B98426D
:102A8000C1D19DF80F2045F8326005EBC203083430
:102A90005F6035F8143043EA422343F4807325F82D
:102AA0001430AFE70022EEE7480000200400AD0B31
:102AB000006000400000AD0BB0000020F0B50446FF
:102AC00085B0154619B3334E00F1080736F81720C4
:102AD000930703D4FFF7D6FE002858D112F01C0F3D
:102AE00002D04B78012B52D001238DF80F300023F8
:102AF000CDE900134A1C8B1C20460DF10F0101F09B
:102B000079FC36F8173043F0030326F8173015B96F
:102B1000214805B0F0BD1F4E04F1080736F8170034
:102B2000830734D595F800C06146890020F0200065
:102B300001F18041C00401F5C041C00C26F8170026
:102B40000023C1F810356A78002AE1D0D1F8103599
:102B5000AD7823F4991323F4F853C1F81035D1F864
:102B600010E5230203F47C53120402F4403243EADA
:102B70000E0313432A0502F4801240EA4C3013433B
:102B800040F0200026F81700C1F81035C0E70348D0
:102B9000BFE700BF480000200000AD0B0400AD0BF4
:102BA000014BC3E9020170474800002008B5024606
:102BB000FFF768FE38B1054B0548083233F812308C
:102BC0005B0B0B7008BD0348FCE700BF480000200A
:102BD0000000AD0B0400AD0B38B50F4C94F86C50F1
:102BE000BDB95422294604F1100001F0A9F90620CC
:102BF000FEF72CFA094B0A48C3F87C51D3F87C2124
:102C00004FF00042C3F80423012384F86C30A3661C
:102C100038BD0448FCE700BF4800002000600040C9
:102C20000000AD0B0500AD0B034B93F86C000038B2
:102C300018BF0120704700BF48000020014601482E
:102C4000FFF7B0BDAC00002001460148FFF78ABD88
:102C5000AC00002037B50446FFF714FE04F108026B
:102C60001E4B33F81230E8B113F002051AD15B0B9A
:102C70009A0002F1804000F5C24002F1804202F564
:102C8000C04205600068D2F8100540F00100C2F8AB
:102C9000100529B1012202FA03F3114AC2F80433E4
:102CA00003B030BDC3F38203042B12D0052B12D026
:102CB00001A80194FFF7D8FD019BD0F81015D94069
:102CC00001F001010231204603B0BDE8304001F0BF
:102CD000DABB0321F7E70221F5E700BF4800002037
:102CE0000060004008B50246FFF7CCFDC0B102F11C
:102CF00008010E4B33F81130990711D45B0B0122F8
:102D00009A409B000A4903F1804303F5C043C1F890
:102D10000823D3F8102522F00302C3F8102508BDBC
:102D2000BDE808400021104601F0ADBB480000207E
:102D30000060004013B50E4B00F10802044633F862
:102D40001230DB0711D5FFF7CDFF2046FFF7ECFD72
:102D500001A80194FFF788FD019B03F5E0730222AF
:102D600040F82320034802B010BD0348FBE700BF32
:102D7000480000200000AD0B0400AD0B2DE9F04F22
:102D8000684B69486949002687B0012234461D68AE
:102D900035B1D0F8045315421EBF1C601D681643A0
:102DA00004338B424FEA4202F1D1DFF87C91D9F82B
:102DB0007C31002B00F099804FF0A043D3F8202500
:102DC0000492C3F82025D3F820280592C3F82028C0
:102DD0004FF000080DF1100A4FEA481300934FF02E
:102DE000010B49E0009B524A94FAA4F4B4FA84F42B
:102DF0001C44E00804F10803039432F813701AF835
:102E0000003004F007020BFA02F223EA02030AF888
:102E1000003003A8FFF728FD039B03F5E073B90812
:102E200050F82330C7F382054A072F46C3F3014306
:102E30002CD520463946DDB2FFF72EFD03A80394BA
:102E4000FFF712FD039B03F5E07350F82330C3F343
:102E500001439D4207D10021204601F014FB294681
:102E6000204601F010FB03A80394FFF7FDFC039B31
:102E70000BFA03F3C0F820355AF82840002CB1D1E2
:102E8000B8F1000F1DD14FF00108A5E7022B0CD1BE
:102E90000321204601F0F7FA05F00503012BE2D1EA
:102EA00039462046FFF7F8FCDDE702212046019372
:102EB00001F0E9FA032DF3D0019B032BD3D1022DAE
:102EC000EDE74FF0A042C9F87C41D9F87C311949AF
:102ED000D2F820350493C2F82035D1F82025059288
:102EE0001343C1F820257FF473AF012416B907B04E
:102EF000BDE8F08F96FAA6F3B3FA83F304FA03F26F
:102F00009B0003F1804303F5C04326EA0206D3F891
:102F10001005D3F81015C0F30520C1F30141FFF7E8
:102F2000BBFCE3E70061004000600040206100401E
:102F3000480000200003005001460148FFF712BC82
:102F4000B800002010B5144C144A1549032323611E
:102F50006361144BA261E3614FF480632362002339
:102F6000A3626362E36222660F4A62661022A2666F
:102F7000E01D2367E366636700F0BDFFBFF35F8F6B
:102F80000A49204600F0B7FFBFF35F8F2023A371EB
:102F9000BFF35F8F10BD00BFBC020020E74B0000F5
:102FA000F04B0000B1030020A1030020F44B00000F
:102FB0000F4B70B553F82040013053F82060A64203
:102FC00000D870BDD4E90035284698476DB138B1B6
:102FD0000028B8BF4042EB68FF28A8BFFF20187048
:102FE000EA68537843F0010353700834E7E700BF01
:102FF000E84A000008B50A4B012203201A70FFF7C7
:10300000D7FF00F011FE0420FFF7D2FF00F0F0F828
:10301000FDF7E0F9034A137B23F00103137308BDA6
:10302000B10700207001002008B50348034A0021C1
:10303000121A01F065FA08BDD0000020B407002084
:1030400070B5002386B00122CDE90423134E144D40
:1030500001930F22CDE902321249182303FB0055D8
:1030600006EBC01604464FF4C07000FB04110E4B73
:1030700000954FF4A072304600F088F8737B0B4A3D
:10308000EE6023F0040373734FF4046304FB033313
:1030900013442C756B6006B070BD00BFF0000020BB
:1030A0006403002000100020A9320000C0070020A7
:1030B00080B50020A6B0FFF77BFF2D4B83F3088877
:1030C0002C4D2D4E6B692D4F43F400736B61002422
:1030D000E02385F82230EC772C766C76AC7685F898
:1030E00020406B6A43F4E0236B6285F82340FEF7CF
:1030F000BFF9FDF78BFF4FF0FF33AB62EB62FEF7DA
:10310000F1FAFEF757FA40F20113ADF8243006AB9E
:10311000B360CDE91F44229401F0CBF90120FFF701
:1031200047FF0220164DFFF743FF00F015FB154B3C
:10313000F5610593012314490094CDE903434FF44D
:1031400080623B46CDE90144284600F01FF86A7BC7
:10315000064622F0040228466A7301F03EFA204631
:10316000FFF76EFF3A4631462846FEF749F800BFA2
:103170000010002000ED00E064030020F52F0000A7
:1031800070010020FB4B0000801100202DE9FF4161
:103190000E9E0673042646730D9E867300F1580535
:1031A0000F46D61DC0E916550C9A002526F00706D5
:1031B0004037C0E90655C0E919768560C573C56614
:1031C00006F1400802920B9A019288440A9A0092F2
:1031D00042460446FDF7E2FF044B65659B6803B178
:1031E0001B6F2367404604B0BDE8F08164030020F4
:1031F0002DE9F043294C2A4D87B02646AE4204F112
:1032000030040FD300F078FA244CDFF898904FF494
:10321000004640F2E737AC4220D307B0BDE8F043A8
:1032200000F07EBA54F8043C059354F8103C049323
:1032300054F8143C039354F8183C029354F81C3C83
:10324000019354F8203C009354E90A2354E90C01FB
:10325000FFF79CFF54F8303C5E65CEE7636A5A1C6A
:103260000DD023EAE37300213846C3FB060151EA7F
:10327000C333D4F8008004D1404600F0EDF9303477
:10328000C9E74FF47A720023FCF73AFF02460B4677
:1032900008F11800494600F0D5FBF0E73C49000072
:1032A0003C4900004745000008B50B4C0B4D4FF062
:1032B0002002EFF3118382F31288BFF36F8F01F0C6
:1032C000E4F92B78A06113B9FDF7A6FEEFE7FDF74F
:1032D000CFFD0028EBD1F7E764030020B107002001
:1032E00038B504464FF02003EFF3118583F31288BD
:1032F000BFF36F8F01F081F948B10022826701F0BE
:103300006CF929460548BDE8384000F093B9D4E986
:1033100002329A4218BF0133A360F2E7B2070020DD
:1033200013B54FF02004EFF3118184F31288BFF33B
:103330006F8F846844B1013C846081F31188BFF3CE
:103340006F8F002002B010BD52EA030406D181F352
:103350001188BFF36F8F6FF00F00F3E7CDE9002303
:103360000246024800F048F9ECE700BFB20700202F
:1033700038B5074D2C6854B1FFF794F8054B044459
:103380001C6128680021BDE8384001F08EB938BDC5
:10339000940300206403002038B50D4D2B4653F8EC
:1033A000204F9C4200D004B9EC68AB6838B95A7B16
:1033B000D20604D1A26912B9DA897F2A05D89C42C3
:1033C00002D02046FFF7D4FF2346EB6138BD00BF93
:1033D0006403002070B590F90D20437B002A01465C
:1033E00004DA03F07F03437301F09BF84B7B154A2B
:1033F00063F07F0310464B7350F8203F546A8342BA
:1034000008BF002323B9C1E90004216051620CE028
:1034100091F90E5093F90E60B5420ED0AE420CDD1C
:103420005868C1E90030016059609068431A5842F9
:10343000BDE870405841FFF7AFBF9C42E3D01B6826
:10344000E0E700BF6403002070B490F90D30427BC8
:10345000002B29DBD30627D183692BBB134962F0EC
:103460007F0242730A4652F8204F944218BF234607
:103470004C6A23B9C0E90024206048620CE090F94E
:103480000E5093F90E60B5420AD0AE4208DD5A687C
:10349000C0E900321060586070BC0020FFF77CBFAC
:1034A000A342E7D01B68E4E770BC704764030020C8
:1034B00008B590F90D20437B002A014604DA03F099
:1034C0007F03437301F02DF8044B9868431A584268
:1034D0005841BDE80840FFF75FBF00BF640300200C
:1034E00070B515461C46064601F04FF8B4F1FF3F93
:1034F00008BFB5F1FF3F08D02A46234606F1180061
:103500000249BDE8704000F09DBA70BD474500001B
:10351000F8B504460D464FF02003EFF3118783F30F
:103520001288BFF36F8F00264FF4004C40F2E73053
:1035300031464FF47A720023E4FB0C01FCF7E0FD06
:10354000B44202DD0228B8BF0220074A074B1060D0
:10355000074A98681E611560FFF70AFF87F3118814
:10356000BFF36F8FF8BD00BF9403002064030020F9
:103570009003002038B54FF02003EFF3118583F35B
:103580001288BFF36F8F174B174A9C6811688C42E3
:1035900007D12046FFF7ECFE85F31188BFF36F8F4C
:1035A00038BD00211160114A1268C2B1E2897F2A38
:1035B00015D8627BD20612D10D4A94F90E1012680A
:1035C00091420CDB0B4A944209D01A69824203DC17
:1035D0002046FFF7FFFEDCE7121A1A61DCE7002243
:1035E000FBE700BF640300208C030020940300204D
:1035F00090030020F000002070B50C480C4D866848
:103600002E600C461146DDE904234FF02006EFF34F
:10361000118586F31288BFF36F8F8068FFF760FF14
:103620002046BDE87040FDF765BD00BF6403002083
:103630008C03002049B9EFF3058030B9054BDA69F6
:103640009B689A4201D0FDF755BD81F31188BFF305
:103650006F8F70476403002010B54FF02002EFF326
:10366000118482F31288BFF36F8F427B510704D419
:1036700084F31188BFF36F8F10BD22F004024273F0
:10368000FFF7E2FE21460248BDE81040FFF7D2BF37
:10369000B207002070B50446183000F0E0FF4FF08C
:1036A0002003EFF3118683F31288BFF36F8F94F931
:1036B0000D20637B002A05DA03F07F036373204645
:1036C00000F02FFF0B4D637BA86843F0100363737A
:1036D000031B58425841FFF75FFE86F31188BFF382
:1036E0006F8FAB68A34203D1BDE8704000F0ADBF5F
:1036F00070BD00BF640300204FF02003EFF3118181
:1037000083F31288BFF36F8F044B9A68D37B013B1E
:10371000D37381F31188BFF36F8F70476403002068
:1037200010B54FF02003EFF3118483F31288BFF339
:103730006F8F084B9A68D37B0133D3730020FFF758
:103740002BFE84F31188BFF36F8FBDE8104000F0AB
:103750007CBF00BF64030020044B002103F1200262
:10376000C3E908220846FFF7D3BE00BF6403002068
:10377000F8B54FF02003EFF3118583F31288BFF300
:103780006F8F19498868437B03F07F03437300F010
:10379000C8FE8B685A7B084662F07F025A7350F865
:1037A000202F4C6A824208BF002222B9C3E90004DC
:1037B00023604B620CE093F90E6092F90E70BE42EA
:1037C0000ED0B7420CDD5168C3E900210B60536095
:1037D0000120FFF7E1FD2846BDE8F840FDF78ABC6F
:1037E000A242E3D01268E0E76403002050EA01033C
:1037F0002DE9F04105460E4603D1FFF7B9FF002041
:103800002CE0831C71F1FF332ADB00F06AFF2C18D7
:103810004FF02003EFF3118883F31288BFF36F8F0B
:10382000114F124BB8681860FFF742FEB868104994
:103830002A463346183000F005F9BA68537B43F046
:10384000100353734046FDF755FC00F04AFF201A61
:1038500063EB0303012873F10003D0DBBDE8F081C3
:103860006FF00104241AD3E7640300208C030020C6
:1038700047450000B1F1FF3F08BFB0F1FF3F08B579
:1038800006D1084B9868FFF705FF4FF0FF3008BDE1
:10389000FFF7ACFF4FF47A7380FB0303C00B40EAE1
:1038A0004340F4E764030020014B9868704700BF71
:1038B000640300202DE9F04104464FF02003EFF3AC
:1038C000118683F31288BFF36F8F037BD9070BD563
:1038D00086F31188BFF36F8F404080F311884FF05B
:1038E000040002DFBDE8F081437B1A0704D586F3AC
:1038F0001188BFF36F8FF5E723F0200242F0080133
:10390000D20920D14173A36813B1204600F011FE03
:1039100004F1180000F0A3FE04F158074FF000086E
:10392000A56DBD4200D0B5B90120FFF735FD104BA4
:103930009B68A342DBD1EFF30583002BD7D1304640
:10394000FDF7D8FBD3E703F05F0343F008034373AD
:1039500000F0E7FDD7E7284600F0EBFD05F1180081
:1039600000F07DFEC5F878802846FFF76DFDD7E7AB
:103970006403002008B50648064A0749121A00F0F9
:10398000C1FDBDE80840054A0549064800F0BABD3A
:1039900000000020CE000020344C00000000000099
:1039A000344C000000000020034B1B680BB9FEF7ED
:1039B00079BD0020704700BF9803002010B5114B5F
:1039C0001C689C420AD1FFF7EFFF6FF000400E4BDE
:1039D0001B6913B19842A8BF184610BDFFF7E4FF5A
:1039E000002CF2D0D4E904321B1A62EBE072B3F17E
:1039F000004F72F10001E8DA002AACBF184600203F
:103A0000E5E700BFBC0000206403002030B570B1C2
:103A10000B4B5B6898420AD0036843B1D3E9042199
:103A2000D0E90445121941EB0501C3E90421D0E9AD
:103A3000003213605A600023C0E9003330BD00BF7C
:103A4000BC000020B3F1FF3F08BFB2F1FF3FF8B563
:103A500004461D46164661D081604FF02003EFF307
:103A6000118783F31288BFF36F8F013275F1FF3333
:103A700024DA3049D1E900206FF001039B1A4FF09E
:103A8000FF3262EB00009E1B60EB0500012E70F11F
:103A9000000301DA01260020C4E90460264ED6F8AE
:103AA00000C07568B44508BF4FF0000CBCF1000FB2
:103AB0000DD1C4E900652C6074601CE0FFF774FF51
:103AC000013645F10005361845EBE070E4E7DCE926
:103AD0000420D4E90431934271EB000E1FDAD21AAC
:103AE000DCF8043060EB0100CCE90420C4E900C339
:103AF0001C60CCF804403368B3420BD09C4209D11F
:103B0000FFF75CFF18B10D4B1B69834202D0002107
:103B1000FEF796FC87F31188BFF36F8FF8BD9B1AF1
:103B200061EB0001AC45C4E90431C2D0DCF800C04F
:103B3000BCE700BFF0010020BC00002064030020AF
:103B40002DE9F8430446FFF715FD4FF02003EFF38E
:103B5000118683F31288BFF36F8F234FDFF88C80B9
:103B6000D8F80000224A3C604045D2E9003E4FEAC6
:103B7000E4710BD050B1D0E9045CAC4271EB0C099C
:103B800016DA2D1B6CEB010CC0E9045CE3184EEB5C
:103B900001010024C2E900313C60FFF70FFF21461C
:103BA000FEF74EFC86F31188BFF36F8FBDE8F883F4
:103BB000EB184EEBE571C2E9003100220023C0E9A9
:103BC0000423FFF723FF86F31188BFF36F8F836809
:103BD00098474FF02003EFF3118683F31288BFF369
:103BE0006F8F3C68641BBBE798030020BC0000207B
:103BF000F001002010B54FF02003EFF3118483F3A0
:103C00001288BFF36F8FFFF7CFFE064A0346D2E953
:103C10000001181841EBE37184F31188BFF36F8F33
:103C200010BD00BFF0010020014800F005B800BF42
:103C3000034C0000002070470FB407B504A951F8E9
:103C4000040B0191FCF7DAFB03B05DF804EB04B060
:103C50007047044608B5084611461A46A047FFF7C4
:103C600023FEFDF791FC038B13F0070305D10368D6
:103C7000002B0CBF002003207047022B05D1408B86
:103C8000B0FA80F0400980007047012B05D103682D
:103C9000002B0CBF0020052070470020704710B596
:103CA0000C4600B111B96FF0150010BD081D00F0F1
:103CB00095F80028F9D1A368032BF6D9F3E72DE98D
:103CC000F0410D4607461946281D90461E4600F055
:103CD00096F8044638B13346424629463846A4464B
:103CE000BDE8F0416047BDE8F08110B44FF020041A
:103CF000EFF3118284F31288BFF36F8F416110BC20
:103D00000121FCF789BB38B50C46054658B151B1C5
:103D10000B6843B14B6833B11C22002100F010F94D
:103D20002C61002038BD6FF01500FBE770B505462B
:103D30000E46FFF7B4FF041E15DB4FF02003EFF330
:103D4000118283F31288BFF36F8F6B8B2C8B4FF62E
:103D5000FF718B4204F0070407D182F31188BFF38F
:103D60006F8F6FF00A04204670BD022C0CD1013316
:103D70006B8382F31188BFF36F8F00232246314695
:103D80002846FFF79CFFEEE7062C14D8DFE804F086
:103D900004131313041A0400002333606B683BB947
:103DA000C5E90066ACB902212846FCF735FBDAE725
:103DB0001E606E60F6E782F31188BFF36F8F6FF0BD
:103DC0000404D0E782F31188BFF36F8F6FF085048E
:103DD000C9E782F31188BFF36F8FC4E7034658B178
:103DE000426802F00302012A03D0032A04D10268C8
:103DF00012B10020986070476FF01500704742685C
:103E0000816002F00302032A4FF0000203460CBF58
:103E1000006810465A6070472DE9F84F9A46D378EB
:103E20006F2B80460F461546A3F1410B29D024D8AD
:103E3000582B0CBF10260A26DDF8289032460023A6
:103E400040463946FCF75CF9092AD4B21ED8303412
:103E5000B045E4B277F1000709F8014D01D3D1452F
:103E600011D82B789B0605D5082E15D1AB7843F0D9
:103E70000803AB704846BDE8F88F03F0F703702BDA
:103E8000D7E70826D8E780460F46D7E7BBF1190FDA
:103E900094BF37345734DBE7102EEBD1AB7843F0C7
:103EA0001003E6E72DE9F0410746884615461E4611
:103EB0001446B44205D30EB1601B08E02378002BF2
:103EC000FAD014F8010B4146B8470028F1DABDE8F2
:103ED000F081704700F0F9BA0146006800F0F5BAC9
:103EE00000210120FFF7F6BF08B5FDF7E3F8BDE8B4
:103EF0000840FDF7BBB90139034611F8012F0AB993
:103F00001A70704703F8012BF7E7034600201A5C8C
:103F100002B970470130FAE7034600201A5C0AB183
:103F2000884200D170470130F8E710B5431E0A44BB
:103F3000914200D110BD11F8014B03F8014FF7E792
:103F4000C9B202440346934200D1704703F8011BF3
:103F5000F9E74FF0FF307047062808D14FF0804353
:103F60000122C3F80025BFF34F8F20BFFDE7704744
:103F7000002383F31188BFF36F8F70470369C9B2C1
:103F80000C2201FB0233186C00F0070070474FF061
:103F90002003EFF3118283F31288BFF36F8F03685E
:103FA00003F0C00343F00203036082F31188BFF300
:103FB0006F8F704770B5C9B203694FF02004EFF3FB
:103FC000118584F31288BFF36F8F0C2606FB013432
:103FD000246C14F0C00408D0A24206D085F31188E6
:103FE000BFF36F8F4FF0FF3070BD06FB013301222E
:103FF0001A6485F31188BFF36F8F436803EBC10325
:104000005B6898470020EFE78022FFF7D3BFF8B541
:10401000069F0469C9B24FF02005EFF3118685F3BE
:104020001288BFF36F8F0C2505FB0144256C05F04A
:10403000070CBCF1010F0CD1276486F31188BFF384
:104040006F8FC4E90E23436853F83130984700203E
:10405000F8BD05F0C005AF4286F31188BFF36F8F3E
:104060000CBF6FF077004FF0FF30F1E713B58024FD
:104070000094FFF7CCFF02B010BD10B40069CBB2C2
:104080001C2403FB0400002110BC1047002000F09A
:1040900073B9002000F0ACB91046FFF721B94368AE
:1040A0005B68D3F810350B600020704743685B688D
:1040B00002EA010021EA0201C3F80805C3F80C1561
:1040C0000020704743685B680020C3F808157047FC
:1040D00043685B680020C3F80C15704743685A6852
:1040E000D2F8043521EA03000B40C2F80805C2F8F3
:1040F0000C350020704710B503695868F8B1884244
:1041000019D19C6808685860A14200D198600020CD
:1041100008602AB15A680A609A68596002B99960C1
:10412000002010E0814206D1086820609868814232
:10413000EDD19C60EBE7044600680028F2D1002A2C
:10414000E8D16FF0150010BD02690B46D2E90101FC
:1041500083E803000020704743681B68D3F880049D
:10416000C3F880047047436802691B68D3F81001E4
:1041700050B15269002012780A70C3F81001D3F8C8
:10418000102101221A6070474FF0FF30704702681B
:104190000346D2F8580140B95B689B0706D4D2F8B1
:1041A0002001003818BF0120704701207047426885
:1041B0001368D3F80413C90518D5D3F82011A9B191
:1041C0004FF02000EFF3118180F31288BFF36F8F5F
:1041D000D3F8200130B10020C3F82001D3F820012A
:1041E0000120D86081F31188BFF36F8F5268D20627
:1041F00015D54FF02001EFF3118281F31288BFF340
:104200006F8FD3F8581111B10021C3F800154FF486
:104210008001C3F8081382F31188BFF36F8F7047D2
:1042200010B50022044601212820FCF72BFF28208E
:10423000FCF70CFF2046BDE81040FDF759BE10B555
:104240000022044601210220FCF71CFF0220FCF79B
:10425000FDFE2046BDE81040FDF74ABE704700F164
:1042600050039B009BB203F1804303F58833002287
:104270001A601B68704730B543681360057A44685C
:1042800004EBC504A34202D36FF0010030BD5C799A
:104290008C4201D00833F0E70020F7E708B5002092
:1042A000FDF76EFA004700F020BAF7B5044618B1E2
:1042B000012820D003B0F0BD4FF080430222C3F8A4
:1042C0000823C3F80401D3F804210122DA60074669
:1042D00001238DF8073042F210754FF08046BCB1D3
:1042E000012CE7D18FB3D6F80C3403F001033B70F7
:1042F000D6F80C3414E04FF080430022C3F80803D2
:10430000C3F80021D3F8002158600DF10707DFE75B
:104310008FB1D6F8183403F003033B60D6F8183495
:10432000DA03C7D59DF807000128C3D1FFF7BBFF0B
:10433000013DD4D1BEE7D6F81834D903BAD501204F
:10434000FFF7B1FF013DF6D1B4E7D6F80C34DB033B
:10435000B0D50120FFF7A7FF013DF6D1AAE708B5C8
:104360000020FCF781FE08B9FCF770FE4FF0804397
:104370000022C3F8182508BD08B510B101282CD0BB
:1043800008BD4FF08042D2F81834D2F81814C80390
:104390000BD4D2F81434D9070FD5D2F81C349B07AC
:1043A00008D40223C2F80433EAE703F00303012B25
:1043B00004D013B10020FFF778FF00234FF08042B4
:1043C000C2F818350023C2F80431D2F804310223B0
:1043D000C2F8043301239360D2E74FF080430022F8
:1043E000C3F80021D3F80021C3F804031860C7E71D
:1043F000FFF75BBFF7B5019001A8DDE90847164656
:104400001D46FEF731FA019BB6F1000C18BF4FF0C4
:10441000010C00EB83000B1E18BF0123002D43EAA3
:104420004C0314BF4FF00C0C4FF0000C002C43EA6F
:104430000C0314BF4FF4E06C4FF0000C002F43EA64
:104440000C03D0F8002714BF4FF4403C4FF0000C91
:1044500043EA0C0322EA030301B109780EB136786E
:10446000760019430DB12D78AD0031430CB124789D
:10447000240229430FB13F783F040C433C43C0F86A
:10448000004703B0F0BD1FB50DF10F0301930023EA
:104490008DF80F1000931A461946FFF7ABFF05B0D1
:1044A0005DF804FBFEF74EBD08B5FFF7FBFF0020EB
:1044B00008BD704740B1C368587810F001001EBFB6
:1044C0001878B0FA80F040097047F8B505460E46F6
:1044D0004FF02003EFF3118783F31288BFF36F8F40
:1044E000FFF7E2F9314604462846FFF7D7FE87F387
:1044F0001188BFF36F8F2046BDE8F840FDF744B840
:10450000FFF71EBDFFF711BDEFF30580003818BFA0
:104510000120704708B5FCF76FFCBDE80840FFF7C5
:104520009DBED0E9003213605A600023C0E9003319
:10453000704708B5FFF7F5FF437B23F00203437391
:104540000023836008BD10B501464FF02003EFF350
:10455000118483F31288BFF36F8F10F80B3C13F0B4
:10456000280F0DD151F8103C18380BB1FFF7E1FFBF
:1045700011F80B3C23F0140301F80B3CFEF764FF29
:1045800084F31188BFF36F8F10BD38B504460D4614
:10459000FEF78EFF637B43F002036373E5B1A56012
:1045A0002B689D4209D16B68C4E900531C606C60A4
:1045B00012E06A689342F6D01B68002BF3D094F99E
:1045C0000E2093F90E108A42F3D09142F1DD5A6821
:1045D000C4E9003214605C6038BD10B54FF02003B0
:1045E000EFF3118483F31288BFF36F8FFEF72CFF74
:1045F00084F31188BFF36F8F10BD38B54FF02003DF
:10460000EFF3118583F31288BFF36F8F0468A04224
:104610000DD034B12046FFF78CFF04F1180000F0F4
:104620001EF885F31188BFF36F8F204638BD002434
:10463000F7E7034620B9EFF305820AB9FCF75ABD44
:1046400083F31188BFF36F8F70474FF02003EFF3B0
:10465000118083F31288BFF36F8FFFF7EABF10B5A5
:104660004FF02002EFF3118482F31288BFF36F8FB3
:1046700003683BB1FFF7CAF9002084F31188BFF348
:104680006F8F10BD6FF01500F7E710B54FF02003E6
:10469000EFF3118483F31288BFF36F8FFFF78EF966
:1046A00084F31188BFF36F8F10BD70B504460D46BB
:1046B0004FF02003EFF3118683F31288BFF36F8F5F
:1046C000FFF77CF9012807DDA04205DBA04229465F
:1046D000A8BF2046FDF7B4FE86F31188BFF36F8FA5
:1046E00070BD08B5FFF786FA08BD08B1FDF75EB8E2
:0446F0007047704758
:0846F40040BAFF7F0100000045
:1046FC00511700000000000035180000444700006E
:10470C00A944000000000000C91B00005C47000029
:10471C00C91B000074470000214200008C470000B8
:10472C003F420000A4470000A51A00000000000052
:08473C00ED2200000000000066
:10474400564B0000004A0000104A0000C40000203C
:104754003C02002054490000734B00002C4A000026
:104764004C4A0000C6000020900200204E49000080
:10477400814B00003C4A00004C4A0000C800002065
:104784009C020020484900008F4B0000704A000042
:10479400D04A0000CA0000200C000020424900005A
:1047A4009D4B00009C4A0000D04A0000CC00002031
:0847B400280000203C49000030
:1047BC0005280000A542000000000000E13E0000BA
:1047CC00A4470000AF41000000000000E13E0000E3
:1047DC0000000000E13E000000000000E13E00008F
:1047EC007D2D0000A542000000000000E13E00000D
:1047FC0000000000E13E000000000000E13E00006F
:10480C0000000000E13E000000000000E13E00005E
:10481C0000000000E13E000000000000E13E00004E
:10482C0000000000E13E000000000000E13E00003E
:10483C0000000000E13E0000000000006D230000BD
:10484C0000000000E13E000000000000E13E00001E
:10485C0000000000E13E000000000000E13E00000E
:10486C0000000000E13E000000000000E13E0000FE
:10487C0000000000E13E000000000000E13E0000EE
:10488C0000000000E13E000000000000E13E0000DE
:10489C0000000000E13E000000000000E13E0000CE
:1048AC0000000000E13E000000000000E13E0000BE
:1048BC0000000000E13E000000000000E13E0000AE
:1048CC0000000000E13E000000000000E13E00009E
:1048DC0000000000E13E000000000000E13E00008E
:1048EC0000000000E13E000000000000E13E00007E
:1048FC008C470000AF41000000000000E13E0000CA
:10490C0000000000E13E000000000000E13E00005D
:10491C0000000000E13E000000000000E13E00004D
:10492C0000000000E13E000000000000E13E00003D
:10493C0000800080FF7F00800080FF7F008000806F
:0E494C00FF7F00800080FF7F00800080FF7FE3
:02495A00FFFF5D
:10495C00C74B000000000000D24B0000000000001C
:10496C00DE4B000000000000254B000000000000A2
:10497C00654B000000000000BB4B00000000000075
:10498C003F4B000000000000004C00000000000045
:10499C003C4B000000000000524B000000000000E7
:0849AC00AB4B0000000000000D
:0C49B400FFFFFFFFFFFFFFFFFFFFFFFF03
:1049C0000338FDD870470000000000200000000000
:1049D00000000B0602000000DC490000000000009F
:1049E000434B000024000207000000204B4B000056
:1049F00020000B11F1170000C1170000000000009B
:104A0000DD180000751900008D4000009340000083
:104A100041190000094000006D4000000000000046
:104A20007D3F00000000000000000000FF030000C8
:104A3000000300500000000001000000FFFFFFFF26
:104A40000000005000000000000000004D1C0000AD
:104A50009F400000AD400000C5400000D140000074
:104A6000DD400000F51A0000F740000000000000E3
:104A7000008002400200000000000000804A0000A8
:104A8000008002408C4A000001000000944A0000AF
:104A900002000000A10101002200000000200040EF
:104AA0000200000000000000AC4A000000200040AE
:104AB000B84A000001000000C04A000004000000E5
:104AC00006000000050002008801010087010300C4
:104AD00067410000D51F000059410000751D00000E
:104AE00049410000F5FFFFFFFC460000FC460000C6
:104AF0003C47000044470000444700004447000092
:104B00006E72663532383333646B5F6E726635327F
:104B10003833330048656C6C6F20576F726C6421BA
:104B20002025730A0063627072696E74665F70613B
:104B3000636B61676500286E696C2900706D006D9C
:104B4000707500464C4153485F30005352414D5FF1
:104B50003000736F6300636C6F636B4034303030D0
:104B60003030303000636C6F636B5F636F6E7472F4
:104B70006F6C006770696F403530303030333030E3
:104B8000006770696F40353030303030303000753C
:104B900061727440343030323830303000756172B8
:104BA0007440343030303230303000756172745FB0
:104BB0006E7266785F756172746500666174616CAF
:104BC0005F6572726F72004E5246585F434C4F439E
:104BD0004B004E5246585F4750494F5445004E5285
:104BE00046585F505049005465726D696E616C00A3
:104BF00052545400534547474552006D61696E0059
:104C00006F73002A2A2A20426F6F74696E67205AD8
:104C10006570687972204F53206275696C642076E4
:104C2000332E322E39392D6E637332202A2A2A0A06
:044C30000000000080
:104C3400353C0000FFFFFFFF533F00000000000071
:104C440000C2010000010300000000009E030020D8
:104C54009D030020000000000000000000C20100CD
:104C64000001030000000000A00300209F030020B7
:104C7400000000000090D0030000000000000000CD
:104C84000000000000000000000000000000000020
:104C94000000000000000000000000000000000010
:104CA4000000000000000000000000000000000000
:104CB40000000000000000000000000000000000F0
:104CC40000000000000000000000000000000000E0
:104CD400000000000000000000000000FF000000D1
:104CE4000000000000000000FFFF0F00BC000020D7
:044CF400BC000020E0
:0A4CF80000000000000000000000B2
:044D020015E015E0C3
:04000003000014AD38
:00000001FF
